:100000000C9434000C943E000C943E000C943E0082
:100010000C943E000C943E000C943E000C943E0068
:100020000C943E000C943E000C943E000C943E0058
:100030000C943E000C943E000C943E000C943E0048
:100040000C943E000C943E000C943E000C943E0038
:100050000C943E000C943E000C943E000C943E0028
:100060000C943E000C943E0011241FBECFEFD8E04C
:10007000DEBFCDBF0E9461000C9471000C940000A3
:10008000CF93DF9300D000D0CDB7DEB769837A83FA
:100090008B839C8380E090E0DC0149815A816B81F5
:1000A0007C8184179507A607B7073CF00F900F9047
:1000B0000F900F90DF91CF9108950196A11DB11D72
:1000C000ECCF259A2D9A60E472E48FE090E00E94D4
:1000D00040002D9860E472E48FE090E00E944000C0
:0600E000F1CFF894FFCF00
:00000001FF
